:100F5000CAFDCFD4CEC2B6C8BCC6003230323132A0
:100F600031373933340054494D453A003A0054483A
:100F70003A00544C3A0054656D7065726174757234
:100F8000650053746F726564210053746F726167FA
:100F9000652046756C6C2100C0F9A4B0999282F866
:090FA00080908883C6A1868E00B2
:0613C900010CFF010B0006
:100D9500E4F53A75900FAF90EF640F60597FE87EE8
:100DA500031213F2AF90EF640F604B75900FAF9085
:100DB500EF24F5601024FE601114601324077012EF
:100DC500E4F50C800D750C018008750C0280037527
:100DD5000C037590F0AF90EF2450600C24E0600C8C
:100DE50024F0600C2470800E740480067408800260
:100DF500740C250CF50CAF3AEF3395E0FEC3EF9478
:100E050032EE648094805012AF90EF64F0600B7FF7
:0A0E1500647E001213F2053A80DC3F
:010E1F0022B0
:0411BF008E3A8F3B9A
:1011C300E4F53CF53DC3E53D953BE53C953A5013CD
:1011D300B2A57F0A7E001213FD053DE53D70E605CD
:0511E3003C80E2C2A502
:0111E80022E4
:10000E0012142B120B92E4F538F53912139E7BFF66
:10001E007A0F7950E4FD7F01120E8F7BFF7A0F79F4
:10002E005B7D017F01120E8FC3E53994B8E538640C
:10003E0080948B506B120C7C7BFF7A0F79667D025D
:10004E00E4FF120E8FE549FB7A00753E027D067FB6
:10005E00041212107BFF7A0F796C7D027F04120E50
:10006E008FE54AFB7A00753E027D097F041212105D
:10007E007BFF7A0F796C7D027F06120E8FE54BFBAC
:10008E007A00753E027D0C7F041212107F647E0092
:10009E001213B474642539F539E43538F53880888F
:1000AE0012139E7FE87E031213B47BFF7A0F796ED4
:1000BE007D02E4FF120E8F7BFF7A0F79727D027F35
:1000CE0004120E8F1214301213D97FE87E0312130E
:1000DE00B4E4FF1211358F127F011211358F0AAF62
:1000EE0012EF3395E0FED3EF9464EE64809480506B
:1000FE001FAF0AEF3395E0FEC3EF94F6EE648094E3
:10010E007F400DD3E50A6480F8E5126480985006AE
:10011E00751214750A0FE512FB3395E0FA753E025F
:10012E007D0B7F02121001E50AFB3395E0FA753E56
:10013E00027D0F7F0212100112135B1214258F1312
:10014E00120D951213D91211948F118E108D0F8CD2
:10015E000EE4FFFEFDFCAB11AA10A90FA80E1208AB
:10016E0065501E7B2D7D017F01121412AF11AE1052
:10017E00AD0FAC0E1208DE8F2F8E2E8D2D8C2C8097
:10018E00157B2B7D017F0112141285112F85102EE8
:10019E00850F2D850E2CAF2FAE2EAD2DAC2C12094A
:1001AE002DAB07AA06753E027D027F011212107B4F
:1001BE002E7D037F01121412E4FFFE7DC87C42AB3C
:1001CE002FAA2EA92DA82C1206BF12092DE47B648E
:1001DE00FAF9F8120AE6753E027D047F011212103A
:1001EE00AF11AE10AD0FAC0E12092DE47B12FAF961
:1001FE00F8120A5BE47B0AFAF9F812104EEF24208B
:10020E00F533E43EF532E43DF531E43CF53085322C
:10021E0034853335E47B64FAF9F8AF33AE32AD3161
:10022E00AC3012104EAE02AF038E368F37753E02D3
:10023E00AB35AA347D067F011212107B2E7D077F0F
:10024E0001121412E4FFFE7DC87C42AB11AA10A964
:10025E000FA80E1206BF12092DE47B64FAF9F812EC
:10026E000AE6AC00AD01AE02AF03E47B12FAF9F878
:10027E00120A5BE47B0AFAF9F8120AE6AB07AA0641
:10028E00753E027D087F01121210E5137003020302
:10029E006DFF7E00640170170512AD12ED3395E00F
:1002AE00FCD3ED9464EC648094804003751264EF8B
:1002BE0064024E70111512D3E50A6480F8E51264DB
:1002CE00809850020512E5136403701412139E05F4
:1002DE000AC3E5126480F8E50A6480984002150AA4
:1002EE00E51364047017150AAF0AEF3395E0FEC3E9
:1002FE00EF94F6EE6480947F5003750AF67BFF7AD6
:10030E000F796E7D02E4FF120E8F7BFF7A0F7972EA
:10031E007D027F04120E8FE512FB3395E0FA753ED7
:10032E00027D0B7F02121001E50AFB3395E0FA7590
:10033E003E027D0F7F02121001E512FD3395E0FCA7
:10034E00E4FF1212837F057E001213B4E50AFD331B
:10035E0095E0FC7F011212837F057E001213B4E537
:10036E000C700302064A64017061C3E50B940574B8
:10037E008094805039AF2FAE2EAD2DAC2CE50B25D1
:10038E00E025E02418F8120B86050B12139E7BFF56
:10039E007A0F79767D01E4FF120E8F7BFF7A0F794B
:1003AE00827D02E4FF120E8F7FD07E07801412131F
:1003BE009E7BFF7A0F798A7D01E4FF120E8F7FE814
:1003CE007E031213B412139E750CFFE50C640270BB
:1003DE007712139EAF1BAE1AAD19AC1812092DABC6
:1003EE0007AA06753E02E4FDFF1212107B2E7D0158
:1003FE00E4FF121412E4FFFE7DC87C42AB1BAA1A66
:10040E00A919A8181206BF12092DE47B64FAF9F88F
:10041E00120AE6AC00AD01AE02AF03E47B12FAF9AC
:10042E00F8120A5BE47B0AFAF9F8120AE6AB07AA9D
:10043E0006753E027D02E4FF1212107FB87E0B128B
:10044E0013B4750CFF12139EE50C64037077121330
:10045E009EAF1FAE1EAD1DAC1C12092DAB07AA061A
:10046E00753E02E4FDFF1212107B2E7D01E4FF1299
:10047E001412E4FFFE7DC87C42AB1FAA1EA91DA864
:10048E001C1206BF12092DE47B64FAF9F8120AE673
:10049E00AC00AD01AE02AF03E47B12FAF9F8120A1A
:1004AE005BE47B0AFAF9F8120AE6AB07AA06753E78
:1004BE00027D02E4FF1212107FB87E0B1213B47588
:1004CE000CFF12139EE50C6404707712139EAF237B
:1004DE00AE22AD21AC2012092DAB07AA06753E0245
:1004EE00E4FDFF1212107B2E7D01E4FF121412E4C4
:1004FE00FFFE7DC87C42AB23AA22A921A8201206AA
:10050E00BF12092DE47B64FAF9F8120AE6AC00ADCD
:10051E0001AE02AF03E47B12FAF9F8120A5BE47B38
:10052E000AFAF9F8120AE6AB07AA06753E027D0230
:10053E00E4FF1212107FB87E0B1213B4750CFF126B
:10054E00139EE50C6405707712139EAF27AE26AD91
:10055E0025AC2412092DAB07AA06753E02E4FDFF59
:10056E001212107B2E7D01E4FF121412E4FFFE7DA9
:10057E00C87C42AB27AA26A925A8241206BF1209B9
:10058E002DE47B64FAF9F8120AE6AC00AD01AE0276
:10059E00AF03E47B12FAF9F8120A5BE47B0AFAF96C
:1005AE00F8120AE6AB07AA06753E027D02E4FF12B8
:1005BE0012107FB87E0B1213B4750CFF12139EE54A
:1005CE000C6406707712139EAF2BAE2AAD29AC28A1
:1005DE0012092DAB07AA06753E02E4FDFF1212109A
:1005EE007B2E7D01E4FF121412E4FFFE7DC87C42D7
:1005FE00AB2BAA2AA929A8281206BF12092DE47B23
:10060E0064FAF9F8120AE6AC00AD01AE02AF03E4EB
:10061E007B12FAF9F8120A5BE47B0AFAF9F8120A6D
:10062E00E6AB07AA06753E027D02E4FF1212107FAA
:10063E00B87E0B1213B4750CFF12139E7BFF7A0F4C
:10064E00796E7D02E4FF120E8F7BFF7A0F79727D39
:10065E00027F04120E8FE512FB3395E0FA753E020F
:10066E007D0B7F02121001E50AFB3395E0FA753E11
:10067E00027D0F7F02121001AC12EC1208F9AB11C1
:10068E00AA10A90FA80E120865600440028013ACD0
:10069E000AEC1208F9AB11AA10A90FA80E120865E0
:1006AE00500A7FE87E031211BF020149C2A5020162
:0106BE0049F2
:03000B00020FA938
:100FA900C0E0C0F0C083C082C0D075D000C000C00E
:0D0FB90001C002C003C004C005C006C0078F
:100FC600758A18758CFC0509E50970020508C39435
:100FD60014E508940040097508007509001210927E
:100FE600D007D006D005D004D003D002D001D0005F
:0B0FF600D0D0D082D083D0F0D0E03209
:1013B400EF1FAC0670011E4C600A7D027CEFDCFE60
:0413C400DDFC80ECE0
:0113C8002202
:0B13F200EF1FAC0670011E4C70F622CD
:0B13FD00EF1FAC0670011E4C70F622C2
:1012E800D3EF9400EE940040147D6E7C00ED1D70E9
:0D12F800011CED4C70F7EF1F70E61E80E347
:0113050022C5
:101283008F3A8C3B8D3C12141C7FA01210D2121388
:10129300E6AF3A1210D21213E6AF3C1210D2121379
:0412A300E60200035C
:021135008F3AEF
:1011370012141C7FA01210D21213E6AF3A1210D26B
:101147001213E612141C7FA11210D21213E6121109
:0D115700E98F3B7F01121408120003AF3B2B
:011164002268
:09141C00D2A0D2A1C2A0C2A122FB
:07000300C2A0D2A1D2A0228D
:0210D200AD0768
:1010D400E4FBEBC394087480948050237E007480F6
:1010E400A803088006CEA2E713CE13D8F8FFEDF5C7
:0F10F40082EF558224FF92A0D2A1C2A10B80D31C
:0111030022C9
:1011E900E4FFD2A0FEEEC39408748094805017D215
:1011F900A130A00DA8067480088002C313D8FC4250
:0612090007C2A10E80DF08
:01120F0022BC
:0A140800EF24FF92A0D2A1C2A1229E
:0B13E600D2A0D2A1A2A0E433FFC2A15C
:0113F10022D9
:0D13D9001213067FCC1212A77F440212A748
:101194001213067FCC1212A77FBE1212A7121237A7
:1011A4008F3A121237EFFEE53AFFFDAC06EC120857
:0B11B400F4E4FBFA798078410207C8E0
:10130600C2AFD2B7C2B77FF7DFFED2B77F20DFFE0C
:0D131600A2B7E433FE7FF7DFFED2AFAF06D3
:0113230022A7
:10137200C2AFC2B77E04DEFEEF24FF92B77E18DE54
:05138200FED2B7D2AF5E
:011387002243
:10132400C2AFC2B77F02DFFED2B77F02DFFEA2B731
:0B133400E433FE7F18DFFED2AFAF06EF
:01133F00228B
:0212A700AD0791
:1012A900E4FCECC39408748094805013A80474017E
:0F12B900088002C333D8FC5DFF1213720C80E370
:0112C8002203
:10123700E4FDFCECC39408748094805016121324C8
:10124700EF600DA8047401088002C333D8FC42057F
:051257000C80E0AF0572
:01125C00226F
:05142500E4AF53F55394
:01142A00229F
:10138800E4FF20B1010F20B0027F0220B2027F03E8
:0513980020B3027F04F8
:01139D00222D
:101092008551521213888F51AF527E00EF64017056
:1010A20007E5517003755301EF64024E7007E55175
:1010B2007003755302E55264037007E551700375BE
:0F10C2005303E55264047007E55170037553043E
:0110D10022FC
:10135B005389F0438901758A18758CFCC28DD28C28
:07136B00D2A9D2AFC2B922E2
:0913CF000746130B100C3B370616
:05142B00C2B5C2B622AB
:05143000D2B5D2B62286
:060E200025F0FDEC3EFC94
:060E26008C3A8D3BAB0786
:100E2C00D2B5E4FDEDC394087480948050227E000A
:100E3C007401A805088005C333CE33CED8F9FFEB77
:100E4C00F582EF558224FF92B4D2B6C2B60D80D48F
:100E5C00E4FDEDC394087480948050247E007401EA
:100E6C00A805088005C333CE33CED8F9FFE53A5E2A
:100E7C00FEE53B5F4E24FF92B4D2B6C2B60D80D2D3
:020E8C00C2B5ED
:010E8E002241
:020EF000AD074C
:100EF200E4F9430501D2B5FBEBC3940874809480F6
:100F020050227E007401A803088005C333CE33CE7D
:100F1200D8F9FFEDF582EF558224FF92B4C2B6D222
:100F2200B60B80D4E4FBEBC3940874809480501712
:100F3200D2B6C2B630B40DA8037401088002C3331E
:0D0F4200D8FC42010B80DFC2B5C2B4AF0184
:010F4F00227F
:100B9200E4FDFC7F8E120E26E54675F00A8475F0A0
:100BA20010A4FFAEF0E54675F00A84EF7F8C120EBA
:100BB20020E54775F00A8475F010A4FFAEF0E54712
:100BC20075F00A847C00EF7F88120E20E54875F0EC
:100BD2000A8475F010A4FFAEF0E54875F00A847C33
:100BE20000EF25F0FDEC3EFC7F86120E26E54975EE
:100BF200F00A8475F010A4FFAEF0E54975F00A849E
:100C02007C00EF25F0FDEC3EFC7F84120E26E54AC7
:100C120075F00A8475F010A4FFAEF0E54A75F00A8B
:100C2200847C00EF25F0FDEC3EFC7F82120E26E56F
:100C32004B75F00A8475F010A4FFAEF0E54B75F029
:100C42000A847C00EF25F0FDEC3EFC7F80120E262C
:100C5200E54C75F00A8475F010A4FFAEF0E54C7512
:100C6200F00A847C00EF25F0FDEC3EFC7F8A120E38
:0A0C7200267D807C007F8E020E2696
:100C7C007F8C120EF0EFC4540F75F00AA4FEEF54E3
:100C8C000F2EF5467F88120EF0EFC4540F75F00A44
:100C9C00A4FEEF540F2EF5477F86120EF0EFC454CE
:100CAC000F75F00AA4FEEF540F2EF5487F84120E38
:100CBC00F0EFC4540F75F00AA4FEEF540F2EF54953
:100CCC007F82120EF0EFC4540F75F00AA4FEEF549D
:100CDC000F2EF54A7F80120EF0EFC4540F75F00AF8
:100CEC00A4FEEF540F2EF54B7F8A120EF0EFC45476
:0C0CFC000F75F00AA4FEEF540F2EF54C0B
:010D080022C8
:10134000C2A6C2A5C2A78F807F017E001212E8D27A
:0B135000A77F017E001212E8C2A72256
:10116500CFCDCFCECCCE120A067C007D0A120A0660
:04117500ED2430FF36
:10117900D2A6C2A5C2A78F807F017E001212E8D233
:0B118900A77F017E001212E8C2A7221F
:10139E00D2B27F301213407F0C1213407F0612130D
:0613AE00407F0102134024
:051435007F01021340DD
:100E8F008B3A8A3B893CEDD3940074809480500256
:100E9F00E4FDEDD394037480948040027D035307E7
:100EAF000FED14600F1460111460132403701243BC
:100EBF000780800D4307908008430788800343070E
:100ECF0098121340AB3AAA3BA93C1209AEFF60102F
:100EDF001211797401253CF53CE4353BF53B80E478
:010EEF0022E0
:0A110400EF24FFFDEE34FFFC7F0A2C
:08110E008E428F438C448D4595
:101116007F017E00E4FBEBC39545E5446480F874EB
:0E1126008098500AAC42AD431209F40B80E8E9
:011134002298
:1012C9008F428D43EF64017005E54314800AE542BE
:0F12D9006402700AE543243F4480FF1213402251
:041210008A3C8B3D4C
:101214001212C9853E3FAF3F7E00D3EF9400748025
:101224009480400E121104AC3CAD3D121165153F83
:0212340080E454
:011236002295
:041001008A3C8B3D5D
:101005001212C9C3E53C64809480400D7F2B1211F8
:1010150079853C40853D4180107F2D121179C3E4CF
:10102500953DF541E4953CF540853E3FAF3F7E005B
:10103500D3EF940074809480400E121104AC40AD3F
:0810450041121165153F80E422
:01104D002280
:0A1412008B3A1212C9AF3A021179A9
:06125D008B4D8A4E894F03
:101263001212C9E4F550AB4DAA4EA94F85508275B1
:0F12730083001209C7FF6007121179055080E749
:011282002249
:1006BF00EC4D6011E8497017ED33EC3304600DE435
:1006CF00FCFFFEFD22E933E8330470F802099912AA
:1006DF00096458046009E4CC2481500628500902AB
:1006EF0009A32840030209A0C0E0EB4A7044B98077
:1006FF0006D0E0FB02098FEF4E701CBD8008EBFFA8
:10070F00EAFEE9FD80EBE98DF0A4FEE5F00207A813
:10071F00E9CDF9EAFEEBFFEF89F0A4FCE5F0CE8915
:10072F00F0A42EFFE435F0CD89F0A42DFEE435F0D2
:10073F008067EF4E7005BD80D780C3EF8BF0A4AC00
:10074F00F0EE8BF0A42CFCE435F0F8EF8AF0A42C3B
:10075F00E5F038FCE433CB8DF0A42CFCE5F03BF84E
:10076F00EE8AF0A42CFCE5F038F8E433CF89F0A43E
:10077F002CFCE5F038CF3400CE89F0A42FFFE5F044
:10078F003EFEE433C98DF0A42EFEE5F039CD8AF09C
:10079F00A42FFFE5F03EFEE43DFD33D0E0FB500714
:1007AF000BBB000F0209A3EC2CFCEF33FFEE33FE63
:0607BF00ED33FD02097B91
:1007C5000209A3EC5D046005E85904700302099968
:1007D500120964580460F6EC4860F2EC7004FDFE02
:1007E500FF22C860DB2481C85009C3986002500607
:1007F5000209A09850CAF582E9294B4A7005AB82D7
:1008050002098F75F0007C1A7880C3EF9BEE9AED94
:1008150099400DC3EF9BFFEE9AFEED99FDE842F07E
:10082500DC23ACF0D0E0FFD0E0FED0E0FDAB8220D1
:10083500E7101BEB60BAEC2CFCEF33FFEE33FEED5B
:1008450033FD02097BE803F830E705C0F075F000D9
:10085500EF2FFFEE33FEED33FD40B830E7C280AA3F
:1008650074F8CC6480CCC86480C8F58204604FC33A
:10087500EB9FF5F0EA9E42F0E99D42F0E89C45F0D9
:10088500603C501DE5825FFFE582D313CB5BCBF463
:100895002B5582FB50280ABA002409B9002008808C
:1008A5001DE5825BFBE582D313CF5FCFF4C3132F26
:1008B5005582FF50090EBE00050DBD00010CC3EBAE
:1008C5009FF5F0EA9E42F0E99D42F0E89C45F06014
:0908D50007CC4820E701B3EC2236
:1008DE00ED33EC33600A047003BD8004ECB2E7FC28
:0108EE0022E7
:1008EF0075F020800E75F010800575F0087D007E84
:1008FF00007F003392D530D503120B78EC334010C4
:10090F00EF33FFEE33FEED33FDEC33FCD5F0ED228C
:0E091F00E5F0247EA2D513CC92E7CDCEFF22C8
:10092D00EDD2E7CD33EC3392D524814006E4FFFEC2
:10093D00FDFC22FCE4CFCECDCC24E0501174FF8021
:10094D00EDC3CC13CCCD13CDCE13CECF13CF0470BE
:07095D00F030D5DE020B783B
:10096400E9D2E7C933E833F892D5EDD2E7CD33ECD9
:0709740033FC5002B2D52252
:10097B00EC30E7100FBF000C0EBE00080DBD0004DD
:10098B000BEB6014A2D5EB13FCED92E7FD2274FF89
:10099B00FCFDFEFF22E480F8A2D574FF13FC7D80E2
:0309AB00E480EFF6
:03000000020D09E5
:0C0D0900787FE4F6D8FD758153020D5090
:1009AE00BB010689828A83E0225002E722BBFE0247
:0909BE00E32289828A83E493227A
:1009C700BB010CE58229F582E5833AF583E02250E5
:1009D70006E92582F8E622BBFE06E92582F8E2222F
:0D09E700E58229F582E5833AF583E4932249
:1009F400EF8DF0A4A8F0CF8CF0A428CE8DF0A42E17
:020A0400FE22D0
:100A0600BC000BBE0029EF8DF084FFADF022E4CCD4
:100A1600F875F008EF2FFFEE33FEEC33FCEE9DEC9D
:100A2600984005FCEE9DFE0FD5F0E9E4CEFD22EDE3
:100A3600F8F5F0EE8420D21CFEADF075F008EF2F2D
:100A4600FFED33FD4007985006D5F0F222C398FD1E
:050A56000FD5F0EA22BB
:100A5B00E88FF0A4CC8BF0A42CFCE98EF0A42CFC3A
:100A6B008AF0EDA42CFCEA8EF0A4CDA8F08BF0A4B8
:100A7B002DCC3825F0FDE98FF0A42CCD35F0FCEB17
:100A8B008EF0A4FEA9F0EB8FF0A4CFC5F02ECD39DC
:0F0A9B00FEE43CFCEAA42DCE35F0FDE43CFC2249
:100AAA0075F008758200EF2FFFEE33FECD33CDCC03
:100ABA0033CCC58233C5829BED9AEC99E582984086
:100ACA000CF582EE9BFEED9AFDEC99FC0FD5F0D663
:100ADA00E4CEFBE4CDFAE4CCF9A88222B800C1B98D
:100AEA000059BA002DEC8BF084CFCECDFCE5F0CBCB
:100AFA00F97818EF2FFFEE33FEED33FDEC33FCEB04
:100B0A0033FB10D703994004EB99FB0FD8E5E4F9BE
:100B1A00FA227818EF2FFFEE33FEED33FDEC33FCAB
:100B2A00C933C910D7059BE99A4007EC9BFCE99A9F
:100B3A00F90FD8E0E4C9FAE4CCFB2275F010EF2FE4
:100B4A00FFEE33FEED33FDCC33CCC833C810D707E4
:100B5A009BEC9AE899400AED9BFDEC9AFCE899F81F
:0E0B6A000FD5F0DAE4CDFBE4CCFAE4C8F922B2
:10104E00C2D5E830E70FB2D5E4C39BFBE49AFAE4CD
:10105E0099F9E498F8EC30E717B2D5121084120A19
:10106E00E6E4C39BFBE49AFAE499F9E498F880036A
:10107E00120AE630D50DE4C39FFFE49EFEE49DFD0B
:04108E00E49CFC22C0
:0E0B7800C3E49FFFE49EFEE49DFDE49CFC228E
:0C0B8600ECF608EDF608EEF608EFF6229B
:100D150002000EE493A3F8E493A34003F68001F2E6
:100D250008DFF48029E493A3F85407240CC8C333DF
:100D3500C4540F4420C8834004F456800146F6DFAE
:100D4500E4800B01020408102040809013C9E47E62
:100D5500019360BCA3FF543F30E509541FFEE493A3
:100D6500A360010ECF54C025E060A840B8E493A36A
:100D7500FAE493A3F8E493A3C8C582C8CAC583CA95
:100D8500F0A3C8C582C8CAC583CADFE9DEE780BE4D
:0113D8000014
:00000001FF
