:100E6700CAFDCFD4CEC2B6C8BCC60032303231328A
:100E770031373933340054494D453A003A00544824
:060E87003A00544C3A0051
:040DEF008E128F13BE
:100DF300E4F514F515C3E5159513E5149512501391
:100E0300B2A57F0A7E001210380515E51570E605B8
:050E13001480E2C2A5FD
:010E180022B7
:1004D5001210701208A6E4F510F511120FF47BFF47
:1004E5007A0E7967E4FD7F01120B187BFF7A0E798E
:1004F500727D017F01120B18C3E51194B8E51064F4
:1005050080948B506B1209907BFF7A0E797D7D026A
:10051500E4FF120B18E52FFB7A007516027D067FA6
:1005250004120E407BFF7A0E79837D027F04120B45
:1005350018E530FB7A007516027D097F04120E401E
:100545007BFF7A0E79837D027F06120B18E531FB5E
:100555007A007516027D0C7F04120E407F647E00C2
:1005650012100A74642511F511E43510F510808810
:10057500120FF47FE87E0312100A7BFF7A0E79854D
:100585007D02E4FF120B187BFF7A0E79897D027FCD
:1005950004120B1812107512101F7FE87E0312103B
:1005A5000AE4FF120D658F267F01120D658F20AFBE
:1005B50026EF3395E0FED3EF9464EE64809480508B
:1005C5001FAF20EF3395E0FEC3EF94F6EE64809401
:1005D5007F400DD3E5206480F8E5266480985006B9
:1005E50075261475200FE526FB3395E0FA7516027E
:1005F5007D0B7F02120C31E520FB3395E0FA751671
:10060500027D0F7F02120C31120FB112106A8F2773
:1006150012101F120DC48F258E248D238C22E4FF0A
:10062500FEFDFCAB25AA24A923A8221201B4501E65
:100635007B2D7D017F01121057AF25AE24AD23AC74
:100645002212022D8F2B8E2A8D298C2880157B2B2B
:100655007D017F0112105785252B85242A852329A5
:10066500852228AF2BAE2AAD29AC2812027CAB0718
:10067500AA067516027D027F01120E407B2E7D03B0
:100685007F01121057E4FFFE7DC87C42AB2BAA2ADE
:10069500A929A82812000E12027CE47B64FAF9F855
:1006A5001204357516027D047F01120E40AF25AE8A
:1006B50024AD23AC2212027CE47B12FAF9F8120372
:1006C500AAE47B0AFAF9F8120C7EEF2420F50BE474
:1006D5003EF50AE43DF509E43CF508850A0C850B71
:1006E5000DE47B64FAF9F8AF0BAE0AAD09AC08125C
:1006F5000C7EAE02AF038E0E8F0F751602AB0DAAE0
:100705000C7D067F01120E407B2E7D077F011210A6
:1007150057E4FFFE7DC87C42AB25AA24A923A82265
:1007250012000E12027CE47B64FAF9F8120435AC6F
:1007350000AD01AE02AF03E47B12FAF9F81203AA89
:10074500E47B0AFAF9F8120435AB07AA0675160216
:100755007D087F01120E40E5277003020831FF7EF8
:1007650000640170170526AD26ED3395E0FCD3ED49
:100775009464EC648094804003752664EF64024EB3
:1007850070111526D3E5206480F8E526648098501D
:10079500020526E52764037014120FF40520C3E54E
:1007A500266480F8E52064809840021520E52764DA
:1007B5000470171520AF20EF3395E0FEC3EF94F6D4
:1007C500EE6480947F50037520F67BFF7A0E798561
:1007D5007D02E4FF120B187BFF7A0E79897D027F7B
:1007E50004120B18E526FB3395E0FA7516027D0B0E
:1007F5007F02120C31E520FB3395E0FA7516027D78
:100805000F7F02120C31E526FD3395E0FCE4FF1263
:100815000ED97F057E0012100AE520FD3395E0FC18
:100825007F01120ED97F057E0012100A7BFF7A0E1A
:1008350079857D02E4FF120B187BFF7A0E79897D9D
:10084500027F04120B18E526FB3395E0FA751602B4
:100855007D0B7F02120C31E520FB3395E0FA75160E
:10086500027D0F7F02120C31AC26EC120248AB253B
:10087500AA24A923A8221201B4600440028013AC63
:1008850020EC120248AB25AA24A923A8221201B400
:10089500500A7FE87E03120DEF020610C2A502067C
:0108A5001042
:03000B00020BD90C
:100BD900C0E0C0F0C083C082C0D075D000C000C0E2
:0D0BE90001C002C003C004C005C006C00763
:100BF600758A18758CFC051FE51F7002051EC394C7
:100C060014E51E94004009751E00751F00120CC2E3
:100C1600D007D006D005D004D003D002D001D00032
:0B0C2600D0D0D082D083D0F0D0E032DC
:10100A00EF1FAC0670011E4C600A7D027CEFDCFE0D
:04101A00DDFC80EC8D
:01101E0022AF
:0B103800EF1FAC0670011E4C70F6228A
:100F3E00D3EF9400EE940040147D6E7C00ED1D7096
:0D0F4E00011CED4C70F7EF1F70E61E80E3F4
:010F5B002273
:100ED9008F128C138D141210617FA0120D02121043
:100EE9002CAF12120D0212102CAF14120D02121097
:040EF9002C020003C4
:020D65008F12EB
:100D67001210617FA0120D0212102CAF12120D0289
:100D770012102C1210617FA1120D0212102C120EEC
:0D0D8700198F137F01121043120003AF13E8
:010D9400223C
:09106100D2A0D2A1C2A0C2A122BA
:07000300C2A0D2A1D2A0228D
:020D0200AD073B
:100D0400E4FBEBC394087480948050237E007480C9
:100D1400A803088006CEA2E713CE13D8F8FFEDF59A
:0F0D240082EF558224FF92A0D2A1C2A10B80D3EF
:010D3300229D
:100E1900E4FFD2A0FEEEC39408748094805017D2E8
:100E2900A130A00DA8067480088002C313D8FC4223
:060E390007C2A10E80DFDC
:010E3F002290
:0A104300EF24FF92A0D2A1C2A12267
:0B102C00D2A0D2A1A2A0E433FFC2A119
:011037002296
:0D101F00120F5C7FCC120EFD7F44020EFD0F
:100DC400120F5C7FCC120EFD7FBE120EFD120E8D33
:100DD4008F12120E8DEFFEE512FFFDAC06EC12022F
:0B0DE40043E4FBFA798078410201171C
:100F5C00C2AFD2B7C2B77FF7DFFED2B77F20DFFEBA
:0D0F6C00A2B7E433FE7FF7DFFED2AFAF0681
:010F79002255
:100FC800C2AFC2B77E04DEFEEF24FF92B77E18DE02
:050FD800FED2B7D2AF0C
:010FDD0022F1
:100F7A00C2AFC2B77F02DFFED2B77F02DFFEA2B7DF
:0B0F8A00E433FE7F18DFFED2AFAF069D
:010F95002239
:020EFD00AD073F
:100EFF00E4FCECC39408748094805013A80474012C
:0F0F0F00088002C333D8FC5DFF120FC80C80E3CB
:010F1E0022B0
:100E8D00E4FDFCECC39408748094805016120F7A24
:100E9D00EF600DA8047401088002C333D8FC42052D
:050EAD000C80E0AF0520
:010EB200221D
:05106A00E4AF39F53987
:01106F00225E
:100FDE00E4FF20B1010F20B0027F0220B2027F0396
:050FEE0020B3027F04A6
:010FF30022DB
:100CC200853738120FDE8F37AF387E00EF64017040
:100CD20007E5377003753901EF64024E7007E53797
:100CE2007003753902E53864037007E537700375E0
:0F0CF2003903E53864047007E53770037539047A
:010D010022CF
:100FB1005389F0438901758A18758CFCC28DD28CD6
:070FC100D2A9D2AFC2B92290
:09104D00072C130B100C3B3706B5
:05107000C2B5C2B6226A
:05107500D2B5D2B62245
:060AA90025F0FDEC3EFC0F
:060AAF008C128D13AB0751
:100AB500D2B5E4FDEDC394087480948050227E0085
:100AC5007401A805088005C333CE33CED8F9FFEBF2
:100AD500F582EF558224FF92B4D2B6C2B60D80D40A
:100AE500E4FDEDC394087480948050247E00740165
:100AF500A805088005C333CE33CED8F9FFE5125ECD
:100B0500FEE5135F4E24FF92B4D2B6C2B60D80D275
:020B1500C2B567
:010B170022BB
:020B7900AD07C6
:100B7B00E4F9430501D2B5FBEBC394087480948070
:100B8B0050227E007401A803088005C333CE33CEF8
:100B9B00D8F9FFEDF582EF558224FF92B4C2B6D29D
:100BAB00B60B80D4E4FBEBC394087480948050178D
:100BBB00D2B6C2B630B40DA8037401088002C33399
:0D0BCB00D8FC42010B80DFC2B5C2B4AF01FF
:010BD80022FA
:1008A600E4FDFC7F8E120AAFE52C75F00A8475F024
:1008B60010A4FFAEF0E52C75F00A84EF7F8C120AC7
:1008C600A9E52D75F00A8475F010A4FFAEF0E52DAC
:1008D60075F00A847C00EF7F88120AA9E52E75F070
:1008E6000A8475F010A4FFAEF0E52E75F00A847C3C
:1008F60000EF25F0FDEC3EFC7F86120AAFE52F7572
:10090600F00A8475F010A4FFAEF0E52F75F00A84A6
:100916007C00EF25F0FDEC3EFC7F84120AAFE5304B
:1009260075F00A8475F010A4FFAEF0E53075F00A94
:10093600847C00EF25F0FDEC3EFC7F82120AAFE5D9
:100946003175F00A8475F010A4FFAEF0E53175F04C
:100956000A847C00EF25F0FDEC3EFC7F80120AAF96
:10096600E53275F00A8475F010A4FFAEF0E5327535
:10097600F00A847C00EF25F0FDEC3EFC7F8A120A2B
:0A098600AF7D807C007F8E020AAF77
:100990007F8C120B79EFC4540F75F00AA4FEEF544C
:1009A0000F2EF52C7F88120B79EFC4540F75F00AC7
:1009B000A4FEEF540F2EF52D7F86120B79EFC45451
:1009C0000F75F00AA4FEEF540F2EF52E7F84120B44
:1009D00079EFC4540F75F00AA4FEEF540F2EF52FD3
:1009E0007F82120B79EFC4540F75F00AA4FEEF5406
:1009F0000F2EF5307F80120B79EFC4540F75F00A7B
:100A0000A4FEEF540F2EF5317F8A120B79EFC454F8
:0C0A10000F75F00AA4FEEF540F2EF53213
:010A1C0022B7
:100F9600C2A6C2A5C2A78F807F017E00120F3ED2D5
:0B0FA600A77F017E00120F3EC2A722B1
:100D9500CFCDCFCECCCE1203557C007D0A120355A4
:040DA500ED2430FF0A
:100DA900D2A6C2A5C2A78F807F017E00120F3ED2B4
:0B0DB900A77F017E00120F3EC2A722A0
:100FF400D2B27F30120F967F0C120F967F06120F1B
:06100400967F01020F9629
:05107A007F01020F964A
:100B18008B128A138914EDD3940074809480500248
:100B2800E4FDEDD394037480948040027D03530761
:100B38000FED14600F146011146013240370124336
:100B48000780800D43079080084307888003430788
:100B580098120F96AB12AA13A9141202FDFF601087
:100B6800120DA974012514F514E43513F51380E466
:010B7800225A
:0A0D3400EF24FFFDEE34FFFC7F0A00
:080D3E008E1A8F1B8C1C8D1D09
:100D46007F017E00E4FBEBC3951DE51C6480F8740F
:0E0D56008098500AAC1AAD1B1203430B80E8C4
:010D6400226C
:100F1F008F1A8D1BEF64017005E51B14800AE51A0B
:0F0F2F006402700AE51B243F4480FF120F9622D4
:040E40008A148B1570
:100E4400120F1F851617AF177E00D3EF940074801E
:100E54009480400E120D34AC14AD15120D95151777
:020E640080E428
:010E66002269
:040C31008A148B1581
:100C3500120F1FC3E51464809480400D7F2B120DA5
:100C4500A985141885151980107F2D120DA9C3E4E7
:100C55009515F519E49514F518851617AF177E0047
:100C6500D3EF940074809480400E120D34AC18AD0F
:080C750019120D95151780E41A
:010C7D002254
:0A1057008B12120F1FAF12020DA939
:060EB3008B338A348935FF
:100EB900120F1FE4F536AB33AA34A935853682758E
:0F0EC9008300120316FF6007120DA9053680E79C
:010ED80022F7
:10000E00EC4D6011E8497017ED33EC3304600DE4EC
:10001E00FCFFFEFD22E933E8330470F80202E81219
:10002E0002B358046009E4CC24815006285009021A
:10003E0002F22840030202EFC0E0EB4A7044B9809E
:10004E0006D0E0FB0202DEEF4E701CBD8008EBFF17
:10005E00EAFEE9FD80EBE98DF0A4FEE5F00200F783
:10006E00E9CDF9EAFEEBFFEF89F0A4FCE5F0CE89CD
:10007E00F0A42EFFE435F0CD89F0A42DFEE435F08A
:10008E008067EF4E7005BD80D780C3EF8BF0A4ACB8
:10009E00F0EE8BF0A42CFCE435F0F8EF8AF0A42CF3
:1000AE00E5F038FCE433CB8DF0A42CFCE5F03BF806
:1000BE00EE8AF0A42CFCE5F038F8E433CF89F0A4F6
:1000CE002CFCE5F038CF3400CE89F0A42FFFE5F0FC
:1000DE003EFEE433C98DF0A42EFEE5F039CD8AF054
:1000EE00A42FFFE5F03EFEE43DFD33D0E0FB5007CC
:1000FE000BBB000F0202F2EC2CFCEF33FFEE33FED3
:06010E00ED33FD0202CA00
:100114000202F2EC5D046005E8590470030202E88F
:100124001202B3580460F6EC4860F2EC7004FDFE71
:10013400FF22C860DB2481C85009C39860025006BE
:100144000202EF9850CAF582E9294B4A7005AB8246
:100154000202DE75F0007C1A7880C3EF9BEE9AED04
:1001640099400DC3EF9BFFEE9AFEED99FDE842F036
:10017400DC23ACF0D0E0FFD0E0FED0E0FDAB822089
:10018400E7101BEB60BAEC2CFCEF33FFEE33FEED13
:1001940033FD0202CAE803F830E705C0F075F00049
:1001A400EF2FFFEE33FEED33FD40B830E7C280AAF7
:1001B40074F8CC6480CCC86480C8F58204604FC3F2
:1001C400EB9FF5F0EA9E42F0E99D42F0E89C45F091
:1001D400603C501DE5825FFFE582D313CB5BCBF41B
:1001E4002B5582FB50280ABA002409B90020088044
:1001F4001DE5825BFBE582D313CF5FCFF4C3132FDE
:100204005582FF50090EBE00050DBD00010CC3EB65
:100214009FF5F0EA9E42F0E99D42F0E89C45F060CB
:0902240007CC4820E701B3EC22ED
:10022D00ED33EC33600A047003BD8004ECB2E7FCDF
:01023D00229E
:10023E0075F020800E75F010800575F0087D007E3B
:10024E00007F003392D530D5031204C7EC33401033
:10025E00EF33FFEE33FEED33FDEC33FCD5F0ED2244
:0E026E00E5F0247EA2D513CC92E7CDCEFF2280
:10027C00EDD2E7CD33EC3392D524814006E4FFFE7A
:10028C00FDFC22FCE4CFCECDCC24E0501174FF80D9
:10029C00EDC3CC13CCCD13CDCE13CECF13CF047076
:0702AC00F030D5DE0204C7AB
:1002B300E9D2E7C933E833F892D5EDD2E7CD33EC91
:0702C30033FC5002B2D5220A
:1002CA00EC30E7100FBF000C0EBE00080DBD000495
:1002DA000BEB6014A2D5EB13FCED92E7FD2274FF41
:1002EA00FCFDFEFF22E480F8A2D574FF13FC7D809A
:0302FA00E480EFAE
:03000000020A1DD4
:0C0A1D00787FE4F6D8FD758139020A6488
:1002FD00BB010689828A83E0225002E722BBFE02FF
:09030D00E32289828A83E4932231
:10031600BB010CE58229F582E5833AF583E022509C
:1003260006E92582F8E622BBFE06E92582F8E222E6
:0D033600E58229F582E5833AF583E4932200
:10034300EF8DF0A4A8F0CF8CF0A428CE8DF0A42ECE
:02035300FE2288
:10035500BC000BBE0029EF8DF084FFADF022E4CC8C
:10036500F875F008EF2FFFEE33FEEC33FCEE9DEC55
:10037500984005FCEE9DFE0FD5F0E9E4CEFD22ED9B
:10038500F8F5F0EE8420D21CFEADF075F008EF2FE5
:10039500FFED33FD4007985006D5F0F222C398FDD6
:0503A5000FD5F0EA2273
:1003AA00E88FF0A4CC8BF0A42CFCE98EF0A42CFCF2
:1003BA008AF0EDA42CFCEA8EF0A4CDA8F08BF0A470
:1003CA002DCC3825F0FDE98FF0A42CCD35F0FCEBCF
:1003DA008EF0A4FEA9F0EB8FF0A4CFC5F02ECD3994
:0F03EA00FEE43CFCEAA42DCE35F0FDE43CFC2201
:1003F90075F008758200EF2FFFEE33FECD33CDCCBB
:1004090033CCC58233C5829BED9AEC99E58298403D
:100419000CF582EE9BFEED9AFDEC99FC0FD5F0D61A
:10042900E4CEFBE4CDFAE4CCF9A88222B800C1B944
:100439000059BA002DEC8BF084CFCECDFCE5F0CB82
:10044900F97818EF2FFFEE33FEED33FDEC33FCEBBB
:1004590033FB10D703994004EB99FB0FD8E5E4F976
:10046900FA227818EF2FFFEE33FEED33FDEC33FC63
:10047900C933C910D7059BE99A4007EC9BFCE99A57
:10048900F90FD8E0E4C9FAE4CCFB2275F010EF2F9C
:10049900FFEE33FEED33FDCC33CCC833C810D7079C
:1004A9009BEC9AE899400AED9BFDEC9AFCE899F8D7
:0E04B9000FD5F0DAE4CDFBE4CCFAE4C8F9226A
:100C7E00C2D5E830E70FB2D5E4C39BFBE49AFAE4A1
:100C8E0099F9E498F8EC30E717B2D5120CB41204C7
:100C9E0035E4C39BFBE49AFAE499F9E498F88003EF
:100CAE0012043530D50DE4C39FFFE49EFEE49DFD96
:040CBE00E49CFC2294
:0E04C700C3E49FFFE49EFEE49DFDE49CFC2246
:100A29000204D5E493A3F8E493A34003F68001F20A
:100A390008DFF48029E493A3F85407240CC8C333CE
:100A4900C4540F4420C8834004F456800146F6DF9D
:100A5900E4800B010204081020408090104DE47ED0
:100A6900019360BCA3FF543F30E509541FFEE49392
:100A7900A360010ECF54C025E060A840B8E493A359
:100A8900FAE493A3F8E493A3C8C582C8CAC583CA84
:100A9900F0A3C8C582C8CAC583CADFE9DEE780BE3C
:011056000099
:00000001FF
