:100FAE00CAFDCFD4CEC2B6C8BCC600323032313242
:100FBE0031373933340054494D453A003A005448DC
:100FCE003A00544C3A0054656D70657261747572D6
:100FDE00650053746F726564210046756C6C210058
:100FEE00C0F9A4B0999282F880908883C6A1868EAB
:010FFE0000F2
:0613C700010CFF010B0008
:100D9B00E4F53A75900FAF90EF640F60597FE87EE2
:100DAB00031213F0AF90EF640F604B75900FAF9081
:100DBB00EF24F5601024FE601114601324077012E9
:100DCB00E4F50C800D750C018008750C0280037521
:100DDB000C037590F0AF90EF2450600C24E0600C86
:100DEB0024F0600C2470800E74048006740880025A
:100DFB00740C250CF50CAF3AEF3395E0FEC3EF9472
:100E0B0032EE648094805012AF90EF64F0600B7FF1
:0A0E1B00647E001213F0053A80DC3B
:010E250022AA
:0411BD008E3A8F3B9C
:1011C100E4F53CF53DC3E53D953BE53C953A5013CF
:1011D100B2A57F0A7E001213FB053DE53D70E605D1
:0511E1003C80E2C2A504
:0111E60022E6
:10000E00121429120B98E4F538F53912139C7BFF64
:10001E007A0F79AEE4FD7F01120E957BFF7A0F7990
:10002E00B97D017F01120E95C3E53994B8E53864A8
:10003E0080948B506B120C827BFF7A0F79C47D02F9
:10004E00E4FF120E95E549FB7A00753E027D067FB0
:10005E000412120E7BFF7A0F79CA7D027F04120EF4
:10006E0095E54AFB7A00753E027D097F0412120E59
:10007E007BFF7A0F79CA7D027F06120E95E54BFB48
:10008E007A00753E027D0C7F0412120E7F647E0094
:10009E001213B274642539F539E43538F538808891
:1000AE0012139C7FE87E031213B27BFF7A0F79CC7A
:1000BE007D02E4FF120E957BFF7A0F79D07D027FD1
:1000CE0004120E9512142E1213D77FE87E0312130C
:1000DE00B2E4FF1211338F127F011211338F0AAF68
:1000EE0012EF3395E0FED3EF9464EE64809480506B
:1000FE001FAF0AEF3395E0FEC3EF94F6EE648094E3
:10010E007F400DD3E50A6480F8E5126480985006AE
:10011E00751214750A0FE512FB3395E0FA753E025F
:10012E007D0B7F02120FFFE50AFB3395E0FA753E59
:10013E00027D0F7F02120FFF1213591214238F1319
:10014E00120D9B1213D71211928F118E108D0F8CD0
:10015E000EE4FFFEFDFCAB11AA10A90FA80E1208AB
:10016E006B501E7B2D7D017F01121410AF11AE104E
:10017E00AD0FAC0E1208E48F2F8E2E8D2D8C2C8091
:10018E00157B2B7D017F0112141085112F85102EEA
:10019E00850F2D850E2CAF2FAE2EAD2DAC2C12094A
:1001AE0033AB07AA06753E027D027F0112120E7B4B
:1001BE002E7D037F01121410E4FFFE7DC87C42AB3E
:1001CE002FAA2EA92DA82C1206C5120933E47B6482
:1001DE00FAF9F8120AEC753E027D047F0112120E36
:1001EE00AF11AE10AD0FAC0E120933E47B12FAF95B
:1001FE00F8120A61E47B0AFAF9F812104CEF242087
:10020E00F533E43EF532E43DF531E43CF53085322C
:10021E0034853335E47B64FAF9F8AF33AE32AD3161
:10022E00AC3012104CAE02AF038E368F37753E02D5
:10023E00AB35AA347D067F0112120E7B2E7D077F11
:10024E0001121410E4FFFE7DC87C42AB11AA10A966
:10025E000FA80E1206C5120933E47B64FAF9F812E0
:10026E000AECAC00AD01AE02AF03E47B12FAF9F872
:10027E00120A61E47B0AFAF9F8120AECAB07AA0635
:10028E00753E027D087F0112120EE5137003020304
:10029E006DFF7E00640170170512AD12ED3395E00F
:1002AE00FCD3ED9464EC648094804003751264EF8B
:1002BE0064024E70111512D3E50A6480F8E51264DB
:1002CE00809850020512E5136403701412139C05F6
:1002DE000AC3E5126480F8E50A6480984002150AA4
:1002EE00E51364047017150AAF0AEF3395E0FEC3E9
:1002FE00EF94F6EE6480947F5003750AF67BFF7AD6
:10030E000F79CC7D02E4FF120E957BFF7A0F79D028
:10031E007D027F04120E95E512FB3395E0FA753ED1
:10032E00027D0B7F02120FFFE50AFB3395E0FA7593
:10033E003E027D0F7F02120FFFE512FD3395E0FCAA
:10034E00E4FF1212817F057E001213B2E50AFD331F
:10035E0095E0FC7F011212817F057E001213B2E53B
:10036E000C700302065064017067C3E50B940574AC
:10037E00809480503CAF2FAE2EAD2DAC2CE50B25CE
:10038E00E025E02418F8120B8C050B12139C7BFF52
:10039E007A0F79D47D01E4FF120E957BFF7A0F79E7
:1003AE00E07D02E4FF120E957FD07E071213B2801D
:1003BE001A12139C7BFF7A0F79E87D01E4FF120E6F
:1003CE00957FE87E031213B2E4F50B12139C750CA5
:1003DE00FFE50C6402707712139CAF1BAE1AAD19B9
:1003EE00AC18120933AB07AA06753E02E4FDFF12E4
:1003FE00120E7B2E7D01E4FF121410E4FFFE7DC869
:10040E007C42AB1BAA1AA919A8181206C5120933E9
:10041E00E47B64FAF9F8120AECAC00AD01AE02AF5F
:10042E0003E47B12FAF9F8120A61E47B0AFAF9F88E
:10043E00120AECAB07AA06753E027D02E4FF121209
:10044E000E7FB87E0B1213B2750CFF12139CE50CC7
:10045E006403707712139CAF1FAE1EAD1DAC1C1241
:10046E000933AB07AA06753E02E4FDFF12120E7B9E
:10047E002E7D01E4FF121410E4FFFE7DC87C42AB1A
:10048E001FAA1EA91DA81C1206C5120933E47B64FF
:10049E00FAF9F8120AECAC00AD01AE02AF03E47B40
:1004AE0012FAF9F8120A61E47B0AFAF9F8120AEC68
:1004BE00AB07AA06753E027D02E4FF12120E7FB84C
:1004CE007E0B1213B2750CFF12139CE50C640470B4
:1004DE007712139CAF23AE22AD21AC20120933ABA1
:1004EE0007AA06753E02E4FDFF12120E7B2E7D0159
:1004FE00E4FF121410E4FFFE7DC87C42AB23AA2257
:10050E00A921A8201206C5120933E47B64FAF9F872
:10051E00120AECAC00AD01AE02AF03E47B12FAF9A5
:10052E00F8120A61E47B0AFAF9F8120AECAB07AA90
:10053E0006753E027D02E4FF12120E7FB87E0B128C
:10054E0013B2750CFF12139CE50C64057077121331
:10055E009CAF27AE26AD25AC24120933AB07AA06F5
:10056E00753E02E4FDFF12120E7B2E7D01E4FF129A
:10057E001410E4FFFE7DC87C42AB27AA26A925A84D
:10058E00241206C5120933E47B64FAF9F8120AEC58
:10059E00AC00AD01AE02AF03E47B12FAF9F8120A19
:1005AE0061E47B0AFAF9F8120AECAB07AA06753E6B
:1005BE00027D02E4FF12120E7FB87E0B1213B2758B
:1005CE000CFF12139CE50C6406707712139CAF2B74
:1005DE00AE2AAD29AC28120933AB07AA06753E0226
:1005EE00E4FDFF12120E7B2E7D01E4FF121410E4C7
:1005FE00FFFE7DC87C42AB2BAA2AA929A828120689
:10060E00C5120933E47B64FAF9F8120AECAC00ADBA
:10061E0001AE02AF03E47B12FAF9F8120A61E47B31
:10062E000AFAF9F8120AECAB07AA06753E027D0229
:10063E00E4FF12120E7FB87E0B1213B2750CFF126E
:10064E00139C7BFF7A0F79CC7D02E4FF120E957B13
:10065E00FF7A0F79D07D027F04120E95E512FB33DF
:10066E0095E0FA753E027D0B7F02120FFFE50AFB45
:10067E003395E0FA753E027D0F7F02120FFFAC122A
:10068E00EC1208FFAB11AA10A90FA80E12086B608E
:10069E000440028013AC0AEC1208FFAB11AA10A999
:1006AE000FA80E12086B500A7FE87E031211BD02CE
:0706BE000149C2A502014938
:03000B00020F568B
:100F5600C0E0C0F0C083C082C0D075D000C000C061
:0D0F660001C002C003C004C005C006C007E2
:100F7300758A18758CFC0509E50970020508C39488
:100F830014E50894004009750800750900121090D3
:100F9300D007D006D005D004D003D002D001D000B2
:0B0FA300D0D0D082D083D0F0D0E0325C
:1013B200EF1FAC0670011E4C600A7D027CEFDCFE62
:0413C200DDFC80ECE2
:0113C6002204
:0B13F000EF1FAC0670011E4C70F622CF
:0B13FB00EF1FAC0670011E4C70F622C4
:1012E600D3EF9400EE940040147D6E7C00ED1D70EB
:0D12F600011CED4C70F7EF1F70E61E80E349
:0113030022C7
:101281008F3A8C3B8D3C12141A7FA01210D012138E
:10129100E4AF3A1210D01213E4AF3C1210D0121383
:0412A100E402000360
:021133008F3AF1
:1011350012141A7FA01210D01213E4AF3A1210D075
:101145001213E412141A7FA11210D01213E4121113
:0D115500E78F3B7F01121406120003AF3B31
:01116200226A
:09141A00D2A0D2A1C2A0C2A122FD
:07000300C2A0D2A1D2A0228D
:0210D000AD076A
:1010D200E4FBEBC394087480948050237E007480F8
:1010E200A803088006CEA2E713CE13D8F8FFEDF5C9
:0F10F20082EF558224FF92A0D2A1C2A10B80D31E
:0111010022CB
:1011E700E4FFD2A0FEEEC39408748094805017D217
:1011F700A130A00DA8067480088002C313D8FC4252
:0612070007C2A10E80DF0A
:01120D0022BE
:0A140600EF24FF92A0D2A1C2A122A0
:0B13E400D2A0D2A1A2A0E433FFC2A15E
:0113EF0022DB
:0D13D7001213047FCC1212A57F440212A550
:101192001213047FCC1212A57FBE1212A5121235B1
:1011A2008F3A121235EFFEE53AFFFDAC06EC12085B
:0B11B200FAE4FBFA798078410207CED6
:10130400C2AFD2B7C2B77FF7DFFED2B77F20DFFE0E
:0D131400A2B7E433FE7FF7DFFED2AFAF06D5
:0113210022A9
:10137000C2AFC2B77E04DEFEEF24FF92B77E18DE56
:05138000FED2B7D2AF60
:011385002245
:10132200C2AFC2B77F02DFFED2B77F02DFFEA2B733
:0B133200E433FE7F18DFFED2AFAF06F1
:01133D00228D
:0212A500AD0793
:1012A700E4FCECC39408748094805013A804740180
:0F12B700088002C333D8FC5DFF1213700C80E374
:0112C6002205
:10123500E4FDFCECC39408748094805016121322CC
:10124500EF600DA8047401088002C333D8FC420581
:051255000C80E0AF0574
:01125A002271
:05142300E4AF53F55396
:0114280022A1
:10138600E4FF20B1010F20B0027F0220B2027F03EA
:0513960020B3027F04FA
:01139B00222F
:101090008551521213868F51AF527E00EF6401705A
:1010A00007E5517003755301EF64024E7007E55177
:1010B0007003755302E55264037007E551700375C0
:0F10C0005303E55264047007E551700375530440
:0110CF0022FE
:101359005389F0438901758A18758CFCC28DD28C2A
:07136900D2A9D2AFC2B922E4
:0913CD000746130B100C3B370618
:05142900C2B5C2B622AD
:05142E00D2B5D2B62288
:060E260025F0FDEC3EFC8E
:060E2C008C3A8D3BAB0780
:100E3200D2B5E4FDEDC394087480948050227E0004
:100E42007401A805088005C333CE33CED8F9FFEB71
:100E5200F582EF558224FF92B4D2B6C2B60D80D489
:100E6200E4FDEDC394087480948050247E007401E4
:100E7200A805088005C333CE33CED8F9FFE53A5E24
:100E8200FEE53B5F4E24FF92B4D2B6C2B60D80D2CD
:020E9200C2B5E7
:010E9400223B
:020EF600AD0746
:100EF800E4F9430501D2B5FBEBC3940874809480F0
:100F080050227E007401A803088005C333CE33CE77
:100F1800D8F9FFEDF582EF558224FF92B4C2B6D21C
:100F2800B60B80D4E4FBEBC394087480948050170C
:100F3800D2B6C2B630B40DA8037401088002C33318
:0D0F4800D8FC42010B80DFC2B5C2B4AF017E
:010F55002279
:100B9800E4FDFC7F8E120E2CE54675F00A8475F094
:100BA80010A4FFAEF0E54675F00A84EF7F8C120EB4
:100BB80026E54775F00A8475F010A4FFAEF0E54706
:100BC80075F00A847C00EF7F88120E26E54875F0E0
:100BD8000A8475F010A4FFAEF0E54875F00A847C2D
:100BE80000EF25F0FDEC3EFC7F86120E2CE54975E2
:100BF800F00A8475F010A4FFAEF0E54975F00A8498
:100C08007C00EF25F0FDEC3EFC7F84120E2CE54ABB
:100C180075F00A8475F010A4FFAEF0E54A75F00A85
:100C2800847C00EF25F0FDEC3EFC7F82120E2CE563
:100C38004B75F00A8475F010A4FFAEF0E54B75F023
:100C48000A847C00EF25F0FDEC3EFC7F80120E2C20
:100C5800E54C75F00A8475F010A4FFAEF0E54C750C
:100C6800F00A847C00EF25F0FDEC3EFC7F8A120E32
:0A0C78002C7D807C007F8E020E2C84
:100C82007F8C120EF6EFC4540F75F00AA4FEEF54D7
:100C92000F2EF5467F88120EF6EFC4540F75F00A38
:100CA200A4FEEF540F2EF5477F86120EF6EFC454C2
:100CB2000F75F00AA4FEEF540F2EF5487F84120E32
:100CC200F6EFC4540F75F00AA4FEEF540F2EF54947
:100CD2007F82120EF6EFC4540F75F00AA4FEEF5491
:100CE2000F2EF54A7F80120EF6EFC4540F75F00AEC
:100CF200A4FEEF540F2EF54B7F8A120EF6EFC4546A
:0C0D02000F75F00AA4FEEF540F2EF54C04
:010D0E0022C2
:10133E00C2A6C2A5C2A78F807F017E001212E6D27E
:0B134E00A77F017E001212E6C2A7225A
:10116300CFCDCFCECCCE120A0C7C007D0A120A0C56
:04117300ED2430FF38
:10117700D2A6C2A5C2A78F807F017E001212E6D237
:0B118700A77F017E001212E6C2A72223
:10139C00D2B27F3012133E7F0C12133E7F06121313
:0613AC003E7F0102133E2A
:051433007F0102133EE1
:100E95008B3A8A3B893CEDD3940074809480500250
:100EA500E4FDEDD394037480948040027D035307E1
:100EB5000FED14600F1460111460132403701243B6
:100EC5000780800D43079080084307888003430708
:100ED5009812133EAB3AAA3BA93C1209B4FF601025
:100EE5001211777401253CF53CE4353BF53B80E474
:010EF50022DA
:0A110200EF24FFFDEE34FFFC7F0A2E
:08110C008E428F438C448D4597
:101114007F017E00E4FBEBC39545E5446480F874ED
:0E1124008098500AAC42AD431209FA0B80E8E5
:01113200229A
:1012C7008F428D43EF64017005E54314800AE542C0
:0F12D7006402700AE543243F4480FF12133E2255
:04120E008A3C8B3D4E
:101212001212C7853E3FAF3F7E00D3EF9400748029
:101222009480400E121102AC3CAD3D121163153F89
:0212320080E456
:011234002297
:040FFF008A3C8B3D60
:101003001212C7C3E53C64809480400D7F2B1211FC
:1010130077853C40853D4180107F2D121177C3E4D5
:10102300953DF541E4953CF540853E3FAF3F7E005D
:10103300D3EF940074809480400E121102AC40AD43
:0810430041121163153F80E426
:01104B002282
:0A1410008B3A1212C7AF3A021177AF
:06125B008B4D8A4E894F05
:101261001212C7E4F550AB4DAA4EA94F85508275B5
:0F12710083001209CDFF6007121177055080E747
:01128000224B
:1006C500EC4D6011E8497017ED33EC3304600DE42F
:1006D500FCFFFEFD22E933E8330470F802099F129E
:1006E500096A58046009E4CC24815006285009029F
:1006F50009A92840030209A6C0E0EB4A7044B98065
:1007050006D0E0FB020995EF4E701CBD8008EBFF9B
:10071500EAFEE9FD80EBE98DF0A4FEE5F00207AE07
:10072500E9CDF9EAFEEBFFEF89F0A4FCE5F0CE890F
:10073500F0A42EFFE435F0CD89F0A42DFEE435F0CC
:100745008067EF4E7005BD80D780C3EF8BF0A4ACFA
:10075500F0EE8BF0A42CFCE435F0F8EF8AF0A42C35
:10076500E5F038FCE433CB8DF0A42CFCE5F03BF848
:10077500EE8AF0A42CFCE5F038F8E433CF89F0A438
:100785002CFCE5F038CF3400CE89F0A42FFFE5F03E
:100795003EFEE433C98DF0A42EFEE5F039CD8AF096
:1007A500A42FFFE5F03EFEE43DFD33D0E0FB50070E
:1007B5000BBB000F0209A9EC2CFCEF33FFEE33FE57
:0607C500ED33FD02098185
:1007CB000209A9EC5D046005E85904700302099F56
:1007DB0012096A580460F6EC4860F2EC7004FDFEF6
:1007EB00FF22C860DB2481C85009C3986002500601
:1007FB000209A69850CAF582E9294B4A7005AB82CB
:10080B0002099575F0007C1A7880C3EF9BEE9AED88
:10081B0099400DC3EF9BFFEE9AFEED99FDE842F078
:10082B00DC23ACF0D0E0FFD0E0FED0E0FDAB8220CB
:10083B00E7101BEB60BAEC2CFCEF33FFEE33FEED55
:10084B0033FD020981E803F830E705C0F075F000CD
:10085B00EF2FFFEE33FEED33FD40B830E7C280AA39
:10086B0074F8CC6480CCC86480C8F58204604FC334
:10087B00EB9FF5F0EA9E42F0E99D42F0E89C45F0D3
:10088B00603C501DE5825FFFE582D313CB5BCBF45D
:10089B002B5582FB50280ABA002409B90020088086
:1008AB001DE5825BFBE582D313CF5FCFF4C3132F20
:1008BB005582FF50090EBE00050DBD00010CC3EBA8
:1008CB009FF5F0EA9E42F0E99D42F0E89C45F0600E
:0908DB0007CC4820E701B3EC2230
:1008E400ED33EC33600A047003BD8004ECB2E7FC22
:0108F40022E1
:1008F50075F020800E75F010800575F0087D007E7E
:10090500007F003392D530D503120B7EEC334010B7
:10091500EF33FFEE33FEED33FDEC33FCD5F0ED2286
:0E092500E5F0247EA2D513CC92E7CDCEFF22C2
:10093300EDD2E7CD33EC3392D524814006E4FFFEBC
:10094300FDFC22FCE4CFCECDCC24E0501174FF801B
:10095300EDC3CC13CCCD13CDCE13CECF13CF0470B8
:07096300F030D5DE020B7E2F
:10096A00E9D2E7C933E833F892D5EDD2E7CD33ECD3
:07097A0033FC5002B2D5224C
:10098100EC30E7100FBF000C0EBE00080DBD0004D7
:100991000BEB6014A2D5EB13FCED92E7FD2274FF83
:1009A100FCFDFEFF22E480F8A2D574FF13FC7D80DC
:0309B100E480EFF0
:03000000020D0FDF
:0C0D0F00787FE4F6D8FD758153020D5684
:1009B400BB010689828A83E0225002E722BBFE0241
:0909C400E32289828A83E4932274
:1009CD00BB010CE58229F582E5833AF583E02250DF
:1009DD0006E92582F8E622BBFE06E92582F8E22229
:0D09ED00E58229F582E5833AF583E4932243
:1009FA00EF8DF0A4A8F0CF8CF0A428CE8DF0A42E11
:020A0A00FE22CA
:100A0C00BC000BBE0029EF8DF084FFADF022E4CCCE
:100A1C00F875F008EF2FFFEE33FEEC33FCEE9DEC97
:100A2C00984005FCEE9DFE0FD5F0E9E4CEFD22EDDD
:100A3C00F8F5F0EE8420D21CFEADF075F008EF2F27
:100A4C00FFED33FD4007985006D5F0F222C398FD18
:050A5C000FD5F0EA22B5
:100A6100E88FF0A4CC8BF0A42CFCE98EF0A42CFC34
:100A71008AF0EDA42CFCEA8EF0A4CDA8F08BF0A4B2
:100A81002DCC3825F0FDE98FF0A42CCD35F0FCEB11
:100A91008EF0A4FEA9F0EB8FF0A4CFC5F02ECD39D6
:0F0AA100FEE43CFCEAA42DCE35F0FDE43CFC2243
:100AB00075F008758200EF2FFFEE33FECD33CDCCFD
:100AC00033CCC58233C5829BED9AEC99E582984080
:100AD0000CF582EE9BFEED9AFDEC99FC0FD5F0D65D
:100AE000E4CEFBE4CDFAE4CCF9A88222B800C1B987
:100AF0000059BA002DEC8BF084CFCECDFCE5F0CBC5
:100B0000F97818EF2FFFEE33FEED33FDEC33FCEBFD
:100B100033FB10D703994004EB99FB0FD8E5E4F9B8
:100B2000FA227818EF2FFFEE33FEED33FDEC33FCA5
:100B3000C933C910D7059BE99A4007EC9BFCE99A99
:100B4000F90FD8E0E4C9FAE4CCFB2275F010EF2FDE
:100B5000FFEE33FEED33FDCC33CCC833C810D707DE
:100B60009BEC9AE899400AED9BFDEC9AFCE899F819
:0E0B70000FD5F0DAE4CDFBE4CCFAE4C8F922AC
:10104C00C2D5E830E70FB2D5E4C39BFBE49AFAE4CF
:10105C0099F9E498F8EC30E717B2D5121082120A1D
:10106C00ECE4C39BFBE49AFAE499F9E498F8800366
:10107C00120AEC30D50DE4C39FFFE49EFEE49DFD07
:04108C00E49CFC22C2
:0E0B7E00C3E49FFFE49EFEE49DFDE49CFC2288
:0C0B8C00ECF608EDF608EEF608EFF62295
:100D1B0002000EE493A3F8E493A34003F68001F2E0
:100D2B0008DFF48029E493A3F85407240CC8C333D9
:100D3B00C4540F4420C8834004F456800146F6DFA8
:100D4B00E4800B01020408102040809013C7E47E5E
:100D5B00019360BCA3FF543F30E509541FFEE4939D
:100D6B00A360010ECF54C025E060A840B8E493A364
:100D7B00FAE493A3F8E493A3C8C582C8CAC583CA8F
:100D8B00F0A3C8C582C8CAC583CADFE9DEE780BE47
:0113D6000016
:00000001FF
